{
  "contractName": "TokenStorage",
  "abi": [
    {
      "inputs": [],
      "payable": false,
      "stateMutability": "nonpayable",
      "type": "constructor"
    },
    {
      "constant": false,
      "inputs": [
        {
          "name": "_address",
          "type": "address"
        }
      ],
      "name": "allowAccess",
      "outputs": [],
      "payable": false,
      "stateMutability": "nonpayable",
      "type": "function"
    },
    {
      "constant": false,
      "inputs": [
        {
          "name": "_address",
          "type": "address"
        }
      ],
      "name": "denyAccess",
      "outputs": [],
      "payable": false,
      "stateMutability": "nonpayable",
      "type": "function"
    },
    {
      "constant": true,
      "inputs": [],
      "name": "getName",
      "outputs": [
        {
          "name": "",
          "type": "string"
        }
      ],
      "payable": false,
      "stateMutability": "view",
      "type": "function"
    },
    {
      "constant": false,
      "inputs": [
        {
          "name": "name",
          "type": "string"
        }
      ],
      "name": "setName",
      "outputs": [
        {
          "name": "",
          "type": "bool"
        }
      ],
      "payable": false,
      "stateMutability": "nonpayable",
      "type": "function"
    },
    {
      "constant": true,
      "inputs": [],
      "name": "getSymbol",
      "outputs": [
        {
          "name": "",
          "type": "string"
        }
      ],
      "payable": false,
      "stateMutability": "view",
      "type": "function"
    },
    {
      "constant": false,
      "inputs": [
        {
          "name": "symbol",
          "type": "string"
        }
      ],
      "name": "setSymbol",
      "outputs": [
        {
          "name": "",
          "type": "bool"
        }
      ],
      "payable": false,
      "stateMutability": "nonpayable",
      "type": "function"
    },
    {
      "constant": true,
      "inputs": [],
      "name": "getDecimals",
      "outputs": [
        {
          "name": "",
          "type": "uint8"
        }
      ],
      "payable": false,
      "stateMutability": "view",
      "type": "function"
    },
    {
      "constant": false,
      "inputs": [
        {
          "name": "decimals",
          "type": "uint8"
        }
      ],
      "name": "setDecimals",
      "outputs": [
        {
          "name": "",
          "type": "bool"
        }
      ],
      "payable": false,
      "stateMutability": "nonpayable",
      "type": "function"
    },
    {
      "constant": false,
      "inputs": [
        {
          "name": "total",
          "type": "uint256"
        }
      ],
      "name": "setTotalSupply",
      "outputs": [
        {
          "name": "",
          "type": "bool"
        }
      ],
      "payable": false,
      "stateMutability": "nonpayable",
      "type": "function"
    },
    {
      "constant": true,
      "inputs": [],
      "name": "getTotalSupply",
      "outputs": [
        {
          "name": "",
          "type": "uint256"
        }
      ],
      "payable": false,
      "stateMutability": "view",
      "type": "function"
    },
    {
      "constant": true,
      "inputs": [
        {
          "name": "_addr",
          "type": "address"
        }
      ],
      "name": "getBalanceOf",
      "outputs": [
        {
          "name": "",
          "type": "uint256"
        }
      ],
      "payable": false,
      "stateMutability": "view",
      "type": "function"
    },
    {
      "constant": false,
      "inputs": [
        {
          "name": "_addr",
          "type": "address"
        },
        {
          "name": "_value",
          "type": "uint256"
        }
      ],
      "name": "setBalanceOf",
      "outputs": [
        {
          "name": "",
          "type": "bool"
        }
      ],
      "payable": false,
      "stateMutability": "nonpayable",
      "type": "function"
    },
    {
      "constant": false,
      "inputs": [
        {
          "name": "_sender",
          "type": "address"
        },
        {
          "name": "_spender",
          "type": "address"
        },
        {
          "name": "_value",
          "type": "uint256"
        }
      ],
      "name": "setAllowances",
      "outputs": [
        {
          "name": "",
          "type": "bool"
        }
      ],
      "payable": false,
      "stateMutability": "nonpayable",
      "type": "function"
    },
    {
      "constant": true,
      "inputs": [
        {
          "name": "_owner",
          "type": "address"
        },
        {
          "name": "_spender",
          "type": "address"
        }
      ],
      "name": "getAllowances",
      "outputs": [
        {
          "name": "",
          "type": "uint256"
        }
      ],
      "payable": false,
      "stateMutability": "view",
      "type": "function"
    }
  ],
  "bytecode": "0x608060405260008060006101000a81548160ff0219169083151502179055506000600260006101000a81548160ff0219169083151502179055506000600460006101000a81548160ff0219169083151502179055506000600460026101000a81548160ff02191690831515021790555034801561007b57600080fd5b506001600860003373ffffffffffffffffffffffffffffffffffffffff1673ffffffffffffffffffffffffffffffffffffffff16815260200190815260200160002060006101000a81548160ff021916908315150217905550611563806100e36000396000f3006080604052600436106100d0576000357c0100000000000000000000000000000000000000000000000000000000900463ffffffff16806315070401146100d557806317d7de7c14610165578063497cce06146101f557806361afd5ac1461027a5780637a1395aa146102bd5780639b96eece14610305578063b21c32781461035c578063b46310f6146103d3578063b84c824614610438578063c47f0027146104b9578063c4a85bc11461053a578063c4e41b221461057d578063f0141d84146105a8578063f7ea7a3d146105d9575b600080fd5b3480156100e157600080fd5b506100ea61061e565b6040518080602001828103825283818151815260200191508051906020019080838360005b8381101561012a57808201518184015260208101905061010f565b50505050905090810190601f1680156101575780820380516001836020036101000a031916815260200191505b509250505060405180910390f35b34801561017157600080fd5b5061017a6106c0565b6040518080602001828103825283818151815260200191508051906020019080838360005b838110156101ba57808201518184015260208101905061019f565b50505050905090810190601f1680156101e75780820380516001836020036101000a031916815260200191505b509250505060405180910390f35b34801561020157600080fd5b50610260600480360381019080803573ffffffffffffffffffffffffffffffffffffffff169060200190929190803573ffffffffffffffffffffffffffffffffffffffff16906020019092919080359060200190929190505050610762565b604051808215151515815260200191505060405180910390f35b34801561028657600080fd5b506102bb600480360381019080803573ffffffffffffffffffffffffffffffffffffffff169060200190929190505050610939565b005b3480156102c957600080fd5b506102eb600480360381019080803560ff169060200190929190505050610add565b604051808215151515815260200191505060405180910390f35b34801561031157600080fd5b50610346600480360381019080803573ffffffffffffffffffffffffffffffffffffffff169060200190929190505050610c87565b6040518082815260200191505060405180910390f35b34801561036857600080fd5b506103bd600480360381019080803573ffffffffffffffffffffffffffffffffffffffff169060200190929190803573ffffffffffffffffffffffffffffffffffffffff169060200190929190505050610cd0565b6040518082815260200191505060405180910390f35b3480156103df57600080fd5b5061041e600480360381019080803573ffffffffffffffffffffffffffffffffffffffff16906020019092919080359060200190929190505050610d57565b604051808215151515815260200191505060405180910390f35b34801561044457600080fd5b5061049f600480360381019080803590602001908201803590602001908080601f0160208091040260200160405190810160405280939291908181526020018383808284378201915050505050509192919290505050610ef0565b604051808215151515815260200191505060405180910390f35b3480156104c557600080fd5b50610520600480360381019080803590602001908201803590602001908080601f0160208091040260200160405190810160405280939291908181526020018383808284378201915050505050509192919290505050611094565b604051808215151515815260200191505060405180910390f35b34801561054657600080fd5b5061057b600480360381019080803573ffffffffffffffffffffffffffffffffffffffff16906020019092919050505061123a565b005b34801561058957600080fd5b506105926113de565b6040518082815260200191505060405180910390f35b3480156105b457600080fd5b506105bd6113e8565b604051808260ff1660ff16815260200191505060405180910390f35b3480156105e557600080fd5b50610604600480360381019080803590602001909291905050506113ff565b604051808215151515815260200191505060405180910390f35b606060018054600181600116156101000203166002900480601f0160208091040260200160405190810160405280929190818152602001828054600181600116156101000203166002900480156106b65780601f1061068b576101008083540402835291602001916106b6565b820191906000526020600020905b81548152906001019060200180831161069957829003601f168201915b5050505050905090565b606060038054600181600116156101000203166002900480601f0160208091040260200160405190810160405280929190818152602001828054600181600116156101000203166002900480156107585780601f1061072d57610100808354040283529160200191610758565b820191906000526020600020905b81548152906001019060200180831161073b57829003601f168201915b5050505050905090565b600060011515600860003373ffffffffffffffffffffffffffffffffffffffff1673ffffffffffffffffffffffffffffffffffffffff16815260200190815260200160002060009054906101000a900460ff1615151480610813575060001515600860003373ffffffffffffffffffffffffffffffffffffffff1673ffffffffffffffffffffffffffffffffffffffff16815260200190815260200160002060009054906101000a900460ff161515145b15156108ad576040517f08c379a00000000000000000000000000000000000000000000000000000000081526004018080602001828103825260248152602001807f7468652061646472657373206e6f7420616c6c6f776564207468652073746f7281526020017f616765210000000000000000000000000000000000000000000000000000000081525060400191505060405180910390fd5b81600760008673ffffffffffffffffffffffffffffffffffffffff1673ffffffffffffffffffffffffffffffffffffffff16815260200190815260200160002060008573ffffffffffffffffffffffffffffffffffffffff1673ffffffffffffffffffffffffffffffffffffffff16815260200190815260200160002081905550600190509392505050565b60011515600860003373ffffffffffffffffffffffffffffffffffffffff1673ffffffffffffffffffffffffffffffffffffffff16815260200190815260200160002060009054906101000a900460ff16151514806109e8575060001515600860003373ffffffffffffffffffffffffffffffffffffffff1673ffffffffffffffffffffffffffffffffffffffff16815260200190815260200160002060009054906101000a900460ff161515145b1515610a82576040517f08c379a00000000000000000000000000000000000000000000000000000000081526004018080602001828103825260248152602001807f7468652061646472657373206e6f7420616c6c6f776564207468652073746f7281526020017f616765210000000000000000000000000000000000000000000000000000000081525060400191505060405180910390fd5b6000600860008373ffffffffffffffffffffffffffffffffffffffff1673ffffffffffffffffffffffffffffffffffffffff16815260200190815260200160002060006101000a81548160ff02191690831515021790555050565b600060011515600860003373ffffffffffffffffffffffffffffffffffffffff1673ffffffffffffffffffffffffffffffffffffffff16815260200190815260200160002060009054906101000a900460ff1615151480610b8e575060001515600860003373ffffffffffffffffffffffffffffffffffffffff1673ffffffffffffffffffffffffffffffffffffffff16815260200190815260200160002060009054906101000a900460ff161515145b1515610c28576040517f08c379a00000000000000000000000000000000000000000000000000000000081526004018080602001828103825260248152602001807f7468652061646472657373206e6f7420616c6c6f776564207468652073746f7281526020017f616765210000000000000000000000000000000000000000000000000000000081525060400191505060405180910390fd5b600460009054906101000a900460ff161515610c7d5781600460016101000a81548160ff021916908360ff1602179055506001600460006101000a81548160ff02191690831515021790555060019050610c82565b600090505b919050565b6000600660008373ffffffffffffffffffffffffffffffffffffffff1673ffffffffffffffffffffffffffffffffffffffff168152602001908152602001600020549050919050565b6000600760008473ffffffffffffffffffffffffffffffffffffffff1673ffffffffffffffffffffffffffffffffffffffff16815260200190815260200160002060008373ffffffffffffffffffffffffffffffffffffffff1673ffffffffffffffffffffffffffffffffffffffff16815260200190815260200160002054905092915050565b600060011515600860003373ffffffffffffffffffffffffffffffffffffffff1673ffffffffffffffffffffffffffffffffffffffff16815260200190815260200160002060009054906101000a900460ff1615151480610e08575060001515600860003373ffffffffffffffffffffffffffffffffffffffff1673ffffffffffffffffffffffffffffffffffffffff16815260200190815260200160002060009054906101000a900460ff161515145b1515610ea2576040517f08c379a00000000000000000000000000000000000000000000000000000000081526004018080602001828103825260248152602001807f7468652061646472657373206e6f7420616c6c6f776564207468652073746f7281526020017f616765210000000000000000000000000000000000000000000000000000000081525060400191505060405180910390fd5b81600660008573ffffffffffffffffffffffffffffffffffffffff1673ffffffffffffffffffffffffffffffffffffffff168152602001908152602001600020819055506001905092915050565b600060011515600860003373ffffffffffffffffffffffffffffffffffffffff1673ffffffffffffffffffffffffffffffffffffffff16815260200190815260200160002060009054906101000a900460ff1615151480610fa1575060001515600860003373ffffffffffffffffffffffffffffffffffffffff1673ffffffffffffffffffffffffffffffffffffffff16815260200190815260200160002060009054906101000a900460ff161515145b151561103b576040517f08c379a00000000000000000000000000000000000000000000000000000000081526004018080602001828103825260248152602001807f7468652061646472657373206e6f7420616c6c6f776564207468652073746f7281526020017f616765210000000000000000000000000000000000000000000000000000000081525060400191505060405180910390fd5b6000809054906101000a900460ff16151561108a578160019080519060200190611066929190611492565b5060016000806101000a81548160ff0219169083151502179055506001905061108f565b600090505b919050565b600060011515600860003373ffffffffffffffffffffffffffffffffffffffff1673ffffffffffffffffffffffffffffffffffffffff16815260200190815260200160002060009054906101000a900460ff1615151480611145575060001515600860003373ffffffffffffffffffffffffffffffffffffffff1673ffffffffffffffffffffffffffffffffffffffff16815260200190815260200160002060009054906101000a900460ff161515145b15156111df576040517f08c379a00000000000000000000000000000000000000000000000000000000081526004018080602001828103825260248152602001807f7468652061646472657373206e6f7420616c6c6f776564207468652073746f7281526020017f616765210000000000000000000000000000000000000000000000000000000081525060400191505060405180910390fd5b600260009054906101000a900460ff16151561123057816003908051906020019061120b929190611492565b506001600260006101000a81548160ff02191690831515021790555060019050611235565b600090505b919050565b60011515600860003373ffffffffffffffffffffffffffffffffffffffff1673ffffffffffffffffffffffffffffffffffffffff16815260200190815260200160002060009054906101000a900460ff16151514806112e9575060001515600860003373ffffffffffffffffffffffffffffffffffffffff1673ffffffffffffffffffffffffffffffffffffffff16815260200190815260200160002060009054906101000a900460ff161515145b1515611383576040517f08c379a00000000000000000000000000000000000000000000000000000000081526004018080602001828103825260248152602001807f7468652061646472657373206e6f7420616c6c6f776564207468652073746f7281526020017f616765210000000000000000000000000000000000000000000000000000000081525060400191505060405180910390fd5b6001600860008373ffffffffffffffffffffffffffffffffffffffff1673ffffffffffffffffffffffffffffffffffffffff16815260200190815260200160002060006101000a81548160ff02191690831515021790555050565b6000600554905090565b6000600460019054906101000a900460ff16905090565b6000600460029054906101000a900460ff16151561148857816005819055506001600460026101000a81548160ff021916908315150217905550600554600660003273ffffffffffffffffffffffffffffffffffffffff1673ffffffffffffffffffffffffffffffffffffffff168152602001908152602001600020819055506001905061148d565b600090505b919050565b828054600181600116156101000203166002900490600052602060002090601f016020900481019282601f106114d357805160ff1916838001178555611501565b82800160010185558215611501579182015b828111156115005782518255916020019190600101906114e5565b5b50905061150e9190611512565b5090565b61153491905b80821115611530576000816000905550600101611518565b5090565b905600a165627a7a72305820c14d4274e7894659f52d852ec5d74df1dd3d07b0c8182ee21ef85257aec2bcff0029",
  "source": "pragma solidity ^0.4.23;\n\ncontract TokenStorage {\n    bool private _initedSymbol = false;\n    string private _symbol;\n    bool private _initedName = false;\n    string private _name;\n    bool private _initedDecimals = false;\n    uint8 private _decimals;\n    bool private _initedTotalSupply = false;\n    uint256 private _totalSupply;\n    mapping (address => uint) private _balanceOf;\n    mapping (address => mapping (address => uint)) private _allowances;\n    // allownce access\n    mapping(address => bool) private accessAllowed;\n    \n    constructor()public{\n        accessAllowed[msg.sender] = true;\n    }\n\n    modifier isPlatform() {\n        require((accessAllowed[msg.sender] == true||accessAllowed[msg.sender] == false),\"the address not allowed the storage!\");\n        _;\n    }\n    // \n    function allowAccess(address _address)   public isPlatform {\n        accessAllowed[_address] = true;\n    }\n    // \n    function denyAccess(address _address)  public isPlatform {\n        accessAllowed[_address] = false;\n    }\n\n    // get name \n    function getName() public view returns(string){\n        return _name;\n    }\n    // set name \n    // \n    function setName(string name) public isPlatform returns(bool){\n        if (!_initedName) {\n            _name = name;\n            _initedName = true;\n            return true;\n        } else {\n            return false;\n        }\n       \n    }\n    // get symbol\n    function getSymbol() public view returns(string){\n        return _symbol;\n    }\n    // set symbol\n    // \n    function setSymbol(string symbol) public  isPlatform returns(bool){\n        if (!_initedSymbol) {\n            _symbol = symbol;\n            _initedSymbol = true;\n            return true;\n        } else {\n            return false;\n        }\n    }\n    // get decimals\n    function getDecimals() public view returns(uint8){\n        return _decimals;\n    }\n    // set _decimals\n    function setDecimals(uint8 decimals) public isPlatform returns(bool){\n        if (!_initedDecimals) {\n            _decimals = decimals;\n            _initedDecimals = true;\n            return true;\n        } else {\n            return false;\n        }\n    }\n    // set total supply\n    // isPlatform\n    function setTotalSupply(uint256 total) public  returns (bool) {\n        if (!_initedTotalSupply) {\n            _totalSupply = total;\n            _initedTotalSupply = true;\n            _balanceOf[tx.origin] = _totalSupply;\n            return true;\n        } else {\n            return false;\n        }\n    }\n    // get total supply\n    function getTotalSupply() public view returns (uint256) {\n        return _totalSupply;\n    }\n    // get balance of address\n    function getBalanceOf(address _addr) public view returns (uint){\n        return _balanceOf[_addr];\n    }\n    // set Transfer value\n    // \n    function setBalanceOf(address _addr, uint _value) public isPlatform  returns(bool) {\n        _balanceOf[_addr] =  _value;\n        return true;\n    }\n    // set _allowances\n    function setAllowances(address _sender,address _spender, uint _value) public isPlatform returns(bool){\n        _allowances[_sender][_spender] = _value;\n        return true;\n    }\n    //  get allowance\n    function getAllowances(address _owner, address _spender) public view returns (uint){\n        return _allowances[_owner][_spender];\n    }\n}",
  "sourcePath": "/Users/depengli/Desktop/geth/contructorUpgrade/contracts/TokenStorage.sol",
  "compiler": {
    "name": "solc",
    "version": "0.4.24+commit.e67f0147.Emscripten.clang"
  },
  "schemaVersion": "2.0.1",
  "updatedAt": "2018-09-19T06:54:43.103Z"
}